{
  "contractName": "MyContract",
  "abi": [
    {
      "inputs": [
        {
          "internalType": "uint256",
          "name": "_data",
          "type": "uint256"
        }
      ],
      "stateMutability": "nonpayable",
      "type": "constructor"
    },
    {
      "inputs": [],
      "name": "data",
      "outputs": [
        {
          "internalType": "uint256",
          "name": "",
          "type": "uint256"
        }
      ],
      "stateMutability": "view",
      "type": "function",
      "constant": true
    },
    {
      "inputs": [],
      "name": "getData",
      "outputs": [
        {
          "internalType": "uint256",
          "name": "",
          "type": "uint256"
        }
      ],
      "stateMutability": "view",
      "type": "function",
      "constant": true
    }
  ],
  "bytecode": "0x608060405234801561001057600080fd5b5060405161024038038061024083398181016040528101906100329190610097565b60008111610075576040517f08c379a000000000000000000000000000000000000000000000000000000000815260040161006c90610100565b60405180910390fd5b8060008190555050610152565b6000815190506100918161013b565b92915050565b6000602082840312156100a957600080fd5b60006100b784828501610082565b91505092915050565b60006100cd601b83610120565b91507f44617461206d7573742062652067726561746572207468616e203000000000006000830152602082019050919050565b60006020820190508181036000830152610119816100c0565b9050919050565b600082825260208201905092915050565b6000819050919050565b61014481610131565b811461014f57600080fd5b50565b60e0806101606000396000f3fe6080604052348015600f57600080fd5b506004361060325760003560e01c80633bc5de3014603757806373d4a13a146051575b600080fd5b603d606b565b604051604891906087565b60405180910390f35b60576074565b604051606291906087565b60405180910390f35b60008054905090565b60005481565b60818160a0565b82525050565b6000602082019050609a6000830184607a565b92915050565b600081905091905056fea2646970667358221220d67bbd928c91982a540ef7a67b592bf6e9c4c536c9261960c1e02fd0839298c364736f6c63430008000033",
  "immutableReferences": {},
  "source": "// contracts/MyContract.sol\n// SPDX-License-Identifier: MIT\npragma solidity ^0.8.0;\n\ncontract MyContract {\n    uint256 public data;\n\n    constructor(uint256 _data) {\n        require(_data > 0, \"Data must be greater than 0\");\n        data = _data;\n    }\n\n    function getData() public view returns (uint256) {\n        return data;\n    }\n}\n",
  "sourcePath": "/home/ajay/Documents/npm/web3-app/contracts/main.sol",
  "compiler": {
    "name": "solc",
    "version": "0.8.0+commit.c7dfd78e.Emscripten.clang"
  },
  "schemaVersion": "3.4.16",
  "updatedAt": "2023-12-09T09:22:30.930Z",
  "networkType": "ethereum",
  "devdoc": {
    "kind": "dev",
    "methods": {},
    "version": 1
  },
  "userdoc": {
    "kind": "user",
    "methods": {},
    "version": 1
  }
}